:100000000A128A1110280800FE00030EF6000408E8
:10001000F7000A08F8007F08F9000A128A113C2A42
:100020000A128A111328831603130A128A150D2443
:100030000A128A11E5000A128A150E240A128A1180
:10004000E6000A128A150F240A128A11E7000A1222
:100050008A150B240A128A11FA000A128A150C2436
:100060000A128A11FB008313A0308400E5300A12C3
:100070008A1538240A128A1183010A128A11D12F93
:10008000FF0000308A007F0882074528462847285D
:10009000482849284A284B280A128A15B02C4F288C
:1000A000502851280A128A15752DFF0000308A0049
:1000B0007F0882075A280A128A151C2C0A128A15F0
:1000C0002A2C0A128A15642C0A128A156E2C0A121E
:1000D0008A15052D0A128A15D42C8312031343089E
:1000E0008039CD004308C4004407D400C21F7928DA
:1000F0007A287B285414540803197F2880289028D4
:10010000540A031D842885288D280030C300003040
:10011000C2000030C1000030C000C217C3019828DF
:100120000030C3000030C2000030C1000030C00009
:100130003F088039FF007F08CD063F08C400440710
:10014000D500BE1FA428A528A628551455080319B4
:10015000AA28AB28BB28550A031DAF28B028B82809
:100160000030BF000030BE000030BD000030BC00D9
:10017000BE17BF01C3280030BF000030BE000030F2
:10018000BD000030BC003F083E043D043C04031D9C
:10019000CA28CB28E4280030C3000030C200003059
:1001A000C1000030C0008030C2047F30C3044D085D
:1001B000FF007F08C3044308BF004208BE00410897
:1001C000BD004008BC003B2A5408031DE828E9286C
:1001D000F2280030BF000030BE000030BD0000300B
:1001E000BC003B2A5408C400C5014508C700550897
:1001F0004402C600031CC70346087F3ECE004708E2
:100200000318013E003ECF004308CC004208CB005B
:100210004108CA004008C9000030C3000030C200D5
:100220000030C1000030C0000030D3000030D200E8
:100230000030D1000030D000D501682955080319DD
:100240002229232943290130C4000310C90DCA0DF6
:10025000CB0DCC0DC40B25290130C4000310C00DFB
:10026000C10DC20DC30DC40B2E29D31F3829392946
:100270003A2940140130C4000310D00DD10DD20D25
:10028000D30DC40B3C293F084C02031D51293E08E5
:100290004B02031D51293D084A02031D51293C0808
:1002A0004902031C54295529642953173C08C902E3
:1002B0003D08031C3D0FCA023E08031C3E0FCB0243
:1002C0003F08031C3F0FCC020130FF007F08D50719
:1002D0001A305502031C6D296E291E294C084B0447
:1002E0004A0449040319752976299529501495293A
:1002F0000130C4000310C00DC10DC20DC30DC40BED
:100300007A29D31F84298529862940140130C40005
:100310000310D00DD10DD20DD30DC40B8829FF30A1
:10032000CE070318CF0AFF30CF07C21F982999299B
:100330007829D501D31F9D299E29BA29FF30500560
:10034000C400FF305105C500FF305205C6007F30A4
:100350005305C70047084604450444040319B1295E
:10036000B229B529D501D50ABA29401CB829B9291D
:10037000BA29B22955080319BE29BF29F02901302D
:10038000C007003003180130C107003003180130E6
:10039000C207003003180130C307431CD029D129FC
:1003A000F0294008C4004108C5004208C6004308BF
:1003B000C7000130C800470DC70CC60CC50CC40CE3
:1003C000C80BDB294708C3004608C2004508C10026
:1003D0004408C0000130CE070318CF0A0030CF0711
:1003E0004F08803AFF0080307F02031DF929FF305B
:1003F0004E02031CFC29FD290B2AFF308312031334
:10040000CE000030CF000030C3000030C20000300A
:10041000C1000030C000831203134F08803AFF0070
:1004200080307F02031D162A01304E020318192A5C
:100430001A2A272A83120313CE01CF010030C300EA
:100440000030C2000030C1000030C000CD01831276
:1004500003134E08D400541C2E2A2F2A312AC21707
:10046000352A7F30FF007F08C2055408C4000310FE
:10047000440CC300D72808000B1E3F2A402A492AF3
:100480008B1C432A442A492A0A128A1509240A1273
:100490008A118B1D4C2A4D2A632A0B1C502A512A83
:1004A000632A83120313061E562A572A632A7A03E5
:1004B000031D5B2A5C2A632AFA0100300A128A159E
:1004C00040240A128A118B1D662A672A7E2A0B1C79
:1004D0006A2A6B2A7E2A83120313061A702A712A4B
:1004E0007E2A7A08031D752A762A7E2A0130FA00B0
:1004F00001300A128A1540240A128A118B1D812AA2
:10050000822A9A2A0B1C852A862A9A2A8312031386
:10051000861E8B2A8C2A9A2A831603136703031DCF
:10052000922A932A9A2AE70100300A128A1549244E
:100530000A128A118B1D9D2A9E2AB72A0B1CA12AFA
:10054000A22AB72A83120313861AA72AA82AB72A2F
:10055000831603136708031DAE2AAF2AB72A01309A
:10056000E70001300A128A1549240A128A118B1DEC
:10057000BA2ABB2AD32A0B1CBE2ABF2AD32A83122B
:100580000313061FC42AC52AD32A8316031366033E
:10059000031DCB2ACC2AD32AE60100300A128A1581
:1005A00052240A128A118B1DD62AD72AF02A0B1C34
:1005B000DA2ADB2AF02A83120313061BE02AE12A37
:1005C000F02A831603136608031DE72AE82AF02A97
:1005D0000130E60001300A128A1552240A128A11EB
:1005E0008B1DF32AF42A0C2B0B1CF72AF82A0C2B50
:1005F00083120313861FFD2AFE2A0C2B8316031376
:100600006503031D042B052B0C2BE50100300A129A
:100610008A155B240A128A118B1D0F2B102B292B94
:100620000B1C132B142B292B83120313861B192B42
:100630001A2B292B831603136508031D202B212B4E
:10064000292B0130E50001300A128A155B240A12B9
:100650008A11831603130C1F2E2B2F2B3A2B831278
:1006600003130C1F342B352B3A2B0A128A15102436
:100670000A128A118B1E3D2B3E2B472B0B1D412B43
:10068000422B472B0A128A1530240A128A1183162C
:1006900003130C1C4C2B4D2B582B831203130C1CD7
:1006A000522B532B582B0A128A1587240A128A11AF
:1006B000831603138C1C5D2B5E2B692B8312031393
:1006C0008C1C632B642B692B0A128A11F6270A12E1
:1006D0008A11831603130C1E6E2B6F2B7A2B831239
:1006E00003130C1E742B752B7A2B0A128A1103200C
:1006F0000A128A11831603138C1E7F2B802B8B2BDF
:10070000831203138C1E852B862B8B2B0A128A15C2
:100710003D250A128A11831603138C1D902B912BF1
:10072000A12B831203138C1D962B972BA12B0A123E
:100730008A1579240A128A110A128A1597240A1234
:100740008A11831603138D1DA62BA72BB22B8312A0
:1007500003138D1DAC2BAD2BB22B0A128A15252449
:100760000A128A11831603138C1DB72BB82BC32BC7
:10077000831203138C1DBD2BBE2BC32B0A128A15AB
:1007800079240A128A11831603130C1DC82BC92B56
:10079000D42B831203130C1DCE2BCF2BD42B0A1278
:1007A0008A1514240A128A11831603130D1CD92BDF
:1007B000DA2BE52B831203130D1CDF2BE02BE52B2B
:1007C0000A128A1518240A128A117908FF0078087B
:1007D0008A0077088400760E8300FE0E7E0E0900E4
:1007E000003083120313E9000030E8000030E70016
:1007F0000030E6005908031D0B2C5808031D0B2C74
:1008000009305702031D082C61305602031D082CC5
:1008100003180B2C0C2C7F2C831603131811831236
:1008200003135608DA005708DB005808DC005908A3
:10083000DD0006300310DA0DDB0DDC0DDD0DFF3EB3
:10084000031D1A2C0030DE002430DF00F430E000FD
:100850000030E1005A08DE025B08031C5B0F312CFC
:10086000322CDF025C08031C5C0F372C382CE002B2
:100870005D08031C5D0F3D2C3E2CE1026108A700C2
:100880006008A6005F08A5005E08A4005608E20004
:100890005708E3005808E4005908E5000630031043
:1008A000E20DE30DE40DE50DFF3E031D4F2C650841
:1008B000A3006408A2006308A1006208A0000A1255
:1008C0008A15C2250A128A11831203132308B10064
:1008D0002208B0002108AF002008AE0000300A1244
:1008E0008A1546270A128A11831203133108E90078
:1008F0003008E8002F08E7002E08E600152D8312C7
:1009000003135908031D932C5808031D932C093019
:100910005702031D8F2C61305602031D8F2C031CC0
:10092000922C932C152D8316031318158312031381
:100930005608DA005708DB005808DC005908DD00CB
:1009400004300310DA0DDB0DDC0DDD0DFF3E031D61
:10095000A12C5D08B1005C08B0005B08AF005A082C
:10096000AE0000300A128A1546270A128A11831235
:1009700003133108BF003008BE002F08BD002E0849
:10098000BC005608DE005708DF005808E000590890
:10099000E10004300310DE0DDF0DE00DE10DFF3E40
:1009A000031DCA2C0030E2002430E300F430E400E0
:1009B0000030E5005E08E2025F08031C5F0FE12CD7
:1009C000E22CE3026008031C600FE72CE82CE40231
:1009D0006108031C610FED2CEE2CE5026508B100E7
:1009E0006408B0006308AF006208AE0000300A126D
:1009F0008A1546270A128A11831203133108C3008D
:100A00003008C2002F08C1002E08C0000A128A1147
:100A10006D200A128A11831203133F08E9003E0871
:100A2000E8003D08E7003C08E6008312031369086C
:100A3000A3006808A2006708A1006608A000433070
:100A4000A7007F30A6000030A5000030A4000A12E5
:100A50008A15A2260A128A1103182F2D302D452D32
:100A6000831203136908A3006808A2006708A100A5
:100A70006608A0000A128A152A260A128A11831211
:100A8000031320088316031399000800831203132D
:100A9000A4002108031D4D2D4E2DBD2DA42D013088
:100AA000A200200A552D0310A20DFF3E031D532D59
:100AB0002208FF3AFF007F088316031385052C2EBA
:100AC0000130A200200A662D0310A20DFF3E031D77
:100AD000642D2208FF3AFF007F0883160313860562
:100AE0002C2E0130A200200A772D0310A20DFF3E0C
:100AF000031D752D2208FF3AFF007F08831603139C
:100B000087052C2E0130A200200A882D0310A20D8B
:100B1000FF3E031D862D2208FF3AFF007F08831643
:100B2000031388052C2E0130A200200A992D0310F2
:100B3000A20DFF3E031D972D2208FF3AFF007F08FC
:100B40008316031389052C2E2408A200A301230871
:100B5000003A0319AC2D2C2E2208003A03194F2D10
:100B6000013A0319602D033A0319712D013A031953
:100B7000822D073A0319932D2C2E2103031DC12D1D
:100B8000C22D2C2E132E0130A200200AC92D0310D5
:100B9000A20DFF3E031DC72D2208FF007F0883160C
:100BA000031385042C2E0130A200200AD92D031036
:100BB000A20DFF3E031DD72D2208FF007F088316DC
:100BC000031386042C2E0130A200200AE92D031005
:100BD000A20DFF3E031DE72D2208FF007F088316AC
:100BE000031387042C2E0130A200200AF92D0310D4
:100BF000A20DFF3E031DF72D2208FF007F0883167C
:100C0000031388042C2E0130A200200A092E0310A1
:100C1000A20DFF3E031D072E2208FF007F0883164A
:100C2000031389042C2E2408A200A3012308003AF0
:100C300003191B2E2C2E2208003A0319C32D013A4A
:100C40000319D32D033A0319E32D013A0319F32DA8
:100C5000073A0319032E2C2E080083120313A40055
:100C60002103031D342E352E952E7C2E0130A2003B
:100C7000200A3C2E0310A20DFF3E031D3A2E22082F
:100C8000FF007F088504FF2E0130A200200A4A2EB3
:100C90000310A20DFF3E031D482E2208FF007F080F
:100CA0008604FF2E0130A200200A582E0310A20D48
:100CB000FF3E031D562E2208FF007F088704FF2EEB
:100CC0000130A200200A662E0310A20DFF3E031D74
:100CD000642E2208FF007F088804FF2E0130A20046
:100CE000200A742E0310A20DFF3E031D722E22084F
:100CF000FF007F088904FF2E2408A200A301230817
:100D0000003A0319842EFF2E2208003A0319362ECA
:100D1000013A0319442E033A0319522E013A0319DA
:100D2000602E073A03196E2EFF2E2108031D992EFF
:100D30009A2EFF2EE62E0130A200200AA12E0310CB
:100D4000A20DFF3E031D9F2E2208FF3AFF007F08E1
:100D50008505FF2E0130A200200AB02E0310A20D3F
:100D6000FF3E031DAE2E2208FF3AFF007F088605D6
:100D7000FF2E0130A200200ABF2E0310A20DFF3E5D
:100D8000031DBD2E2208FF3AFF007F088705FF2EB6
:100D90000130A200200ACE2E0310A20DFF3E031D3B
:100DA000CC2E2208FF3AFF007F088805FF2E013075
:100DB000A200200ADD2E0310A20DFF3E031DDB2E34
:100DC0002208FF3AFF007F088905FF2E2408A200B1
:100DD000A3012308003A0319EE2EFF2E2208003A41
:100DE00003199B2E013A0319AA2E033A0319B92EAF
:100DF000013A0319C82E073A0319D72EFF2E08000F
:100E000083120313A001A10103300A128A1146259F
:100E10000A128A1183120313A001A00AA101033050
:100E20000A128A1146250A128A110230831203130C
:100E3000A000A10103300A128A1146250A128A1164
:100E4000033083120313A000A10103300A128A1198
:100E500046250A128A11043083120313A000A1014F
:100E600003300A128A1146250A128A1105308312AC
:100E70000313A000A10103300A128A1146250A12A9
:100E80008A11063083120313A000A10103300A1255
:100E90008A1146250A128A11073083120313A00013
:100EA000A10103300A128A1146250A128A118312FF
:100EB0000313A001A10103300A128A112D260A1280
:100EC0008A1183120313A001A00AA10103300A12A0
:100ED0008A112D260A128A11023083120313A000F0
:100EE000A10103300A128A112D260A128A11033039
:100EF00083120313A000A10103300A128A112D26C8
:100F00000A128A11043083120313A000A1010330D6
:100F10000A128A112D260A128A1105308312031330
:100F2000A000A10103300A128A112D260A128A118B
:100F3000063083120313A000A10103300A128A11A4
:100F40002D260A128A11073083120313A000A10173
:100F500003300A128A112D260A128A1103308312D5
:100F60000313A000A10101300A128A1146250A12BA
:100F70008A11033083120313A000A10101300A1269
:100F80008A112D260A128A11043083120313A0003D
:100F9000A101A10A01300A128A1146250A128A11FA
:100FA0000800003083120313ED000030EC0096308F
:100FB000EB000030EA000A128A1575250A128A1120
:100FC00083120313A0011030A100831603133D0800
:100FD0000A128A1140200A128A110A128A11002765
:100FE0000A128A11F22F0A128A111028831203138F
:100FF0008C10831603134C0883120313910008000E
:10100000FF1B0A2883137F1883170008840A03191B
:10101000FF0A080008308A000408840A82070034A6
:101020003734383439342F343434353436342A3480
:101030003134323433342D34233430343D342B3492
:101040002034543420343D34203425346434203466
:101050002034203420342034003420344134783497
:1010600020343D342034253464342034203420347A
:101070002034003420344734783420343D34203454
:101080002534643420342034203420340034203497
:101090004134793420343D342034253464342034D0
:1010A0002034203420340034203447347934203440
:1010B0003D3420342534643420342034203420342A
:1010C0000034203441347A3420343D342034253403
:1010D0006434203420342034203400342034473425
:1010E0007A3420343D3420342534643420342034A0
:1010F0002034203400344534523452344F34523486
:021100000034B9
:101812008B1008000134FF34013401340134831287
:1018220003130C130800831203130C110800831214
:1018320003130D100800831203131A080800831201
:101842000313181218160800831203138D11941330
:1018520008000A128A1520240A128A1508000B11A0
:1018620083160313460883120313810008006400E1
:101872008001840A0406031900340406392CF0009E
:101882000B107008031D462C472C482C482C0800CE
:10189200F0000B107008031D4F2C502C512C512CB2
:1018A2000800F0000B107008031D582C592C5A2CFC
:1018B2005A2C0800F0000B107008031D612C622CDA
:1018C200632C632C0800831203138C1E692C6A2C70
:1018D2006D2C1A08F0007008080083160313981C78
:1018E200732C742C6E2C7008831203139900080059
:1018F200831203138C11941F7F2C802C812C941340
:10190200141F842C852C862C1413080083120313B5
:101912000C10831603134508831203138F008316DA
:1019220003134408831203138E0008008312031367
:101932008C11831603135F080319A02CA12CA22C6F
:1019420014085E080319A62CA72CA82C14088312CD
:101952000313141FAD2CAE2CAF2C141308008312EA
:10196200031320080319B62CB72CC22C8B170B17A4
:10197200831603130C168312031320088316031312
:10198200CB00831221080319C72CC82CD32C8B1728
:101992000B17831603138C16831203132108831665
:1019A2000313CA000800831603133A080A128A11A5
:1019B20055200A128A15F50083120313061AE22C27
:1019C200E32CF82C750888007508F00083160313C1
:1019D20037080A128A1155200A128A158312031334
:1019E2008615061EF52CF62CF22C8611042D6C3071
:1019F200F1008030F2008316031339080A128A11AB
:101A020055200A128A150800F301F401F301F401CA
:101A1200222D73087107840072080318720AFF00EE
:101A22000A128A1500200A128A15F0000A128A1573
:101A32006E240A128A150130F3070318F40A0030E3
:101A4200F40773087107840072080318720A83127C
:101A52000313FF000A128A1500200A128A15003A9F
:101A6200031D342D352D0A2D0A30F0000A128A1575
:101A72006E240A128A150800831603134A080319F2
:101A8200432D442D4A2D4A080A128A1155200A1262
:101A92008A158316031349080319502D512D5F2D02
:101AA20083120313181D562D572D5F2D8316031312
:101AB20049080A128A1155200A128A15831603133D
:101AC20048080319652D662D742D83120313981C83
:101AD2006B2D6C2D742D8316031348080A128A117C
:101AE20055200A128A1508008312031398138316CD
:101AF20003131812831203136D08D9006C08D8005F
:101B02006B08D7006A08D6000A128A11F0230A125B
:101B12008A158316031318139816831203131813C6
:101B220018160630A000A101A10A02300A128A1179
:101B320046250A128A15073083120313A000A10159
:101B4200A10A02300A128A1146250A128A150130A8
:101B520083160313C9000430C8000D30B6000730E5
:101B6200BA000A30B700BB30B8000D30B900BB3044
:101B7200BB000730BD00BB30BC00831203139817B3
:101B82000800003083120313AC000030AB000030B9
:101B9200AA000030A900230822042104200403190A
:101BA200D32DD42D212EAD01AD0AE42D0130A80094
:101BB2000310A00DA10DA20DA30DA80BD92D01306C
:101BC200FF007F08AD07A31FE72DE82DD72D0130B9
:101BD200A8000310A90DAA0DAB0DAC0DA80BEA2DA0
:101BE20023082702031DFF2D22082602031DFF2DB5
:101BF20021082502031DFF2D20082402031C022EAA
:101C0200032E122E2008A4022108031C210FA50274
:101C12002208031C220FA6022308031C230FA7027B
:101C2200291401300310A30CA20CA10CA00CFF3E3E
:101C3200031D132E0130AD02031D202E212EE82D8F
:101C42002C08A3002B08A2002A08A1002908A00042
:101C52000800031083120313220D230DA900290883
:101C6200031D342E352E3E2E0030A3000030A2007C
:101C72000030A1000030A000A12E2008A4002108FD
:101C8200A5002208A6002308A7001F300310A70CF6
:101C9200A60CA50CA40CFF3E031D472E2408A80089
:101CA200A217FF30A005FF30A105FF30A2050030CA
:101CB200A3059630A902A91F5F2E602E7A2E29084D
:101CC200803A973E0318662E672E682E352E013015
:101CD2000310A30CA20CA10CA00CFF3E031D692E45
:101CE2000130FF007F08A907031D782E792E682E88
:101CF200912E20302902031C7F2E802E8C2E352E11
:101D02000130A4000310A00DA10DA20DA30DA40B80
:101D1200832E0130A9022908031D902E912E812EB7
:101D220028080319952E962EA12EA009A109A20911
:101D3200A309A00A0319A10A0319A20A0319A30AF3
:101D420008000030831203132005A800003021058B
:101D5200A90080302205AA007F302305AB002B08A2
:101D62002A0429042804031DB72EB82EC02E0030E1
:101D7200A3000030A2000030A1000030A00000301B
:101D82002405A80000302505A90080302605AA00F8
:101D92007F302705AB002B082A0429042804031DE1
:101DA200D32ED42EDC2E0030A7000030A600003047
:101DB200A5000030A400A31FDF2EE02E042F003068
:101DC200A8000030A9000030AA008030AB00200833
:101DD200A8022108031C210FEF2EF02EA9022208CF
:101DE200031C220FF52EF62EAA022308031C230F32
:101DF200FB2EFC2EAB022B08A3002A08A200290806
:101E0200A1002808A000A71F072F082F2C2F0030A1
:101E1200A8000030A9000030AA008030AB002408DE
:101E2200A8022508031C250F172F182FA902260820
:101E3200031C260F1D2F1E2FAA022708031C270F83
:101E4200232F242FAB022B08A7002A08A60029085B
:101E5200A5002808A4008030A3068030A706270822
:101E62002302031D3E2F26082202031D3E2F2508B2
:101E72002102031D3E2F240820020318412F422F66
:101E8200442F0310452F0314080083120313B600D6
:101E9200360803194D2F4E2F622FB11F512F522F8B
:101EA200622F2E09B8002F09B9003009BA00310992
:101EB200BB00B80A0319B90A0319BA0A0319BB0A03
:101EC2006A2F3108BB003008BA002F08B9002E086B
:101ED200B800310830042F042E04031D712F722F15
:101EE2007B2F0030B1000030B0000030AF00003076
:101EF200AE00FF2F9630B7008B2F0130FF007F0816
:101F0200B70701300310BB0CBA0CB90CB80CFF3E7A
:101F1200031D832FFE303B05031D902F912F7E2F33
:101F2200AD2F0130FF007F08B7070130B80700303E
:101F320003180130B907003003180130BA07003026
:101F420003180130BB0701300310BB0CBA0CB90CEB
:101F5200B80CFF3E031DA52FFF303B05031DB22F1A
:101F6200B32F922FBF2F0130B7020130B2000310FE
:101F7200B80DB90DBA0DBB0DB20BB82FBA1BC22FDB
:101F8200C32FC92F023037020318C82FC92FB42F0D
:101F92003718CC2FCD2FD52FFF30B805FF30B9051C
:101FA2007F30BA05FF30BB050310B70C3708B2000B
:101FB200B301B401B50118300310B20DB30DB40D65
:101FC200B50DFF3E031DDD2F3208B8043308B904F6
:101FD2003408BA043508BB0436080319F12FF22F6E
:101FE200F72FB11FF52FF62FF72FBB173B08B100C4
:0E1FF2003A08B0003908AF003808AE00080009
:08400000FF3FFF3FFF3FFF3FC0
:02400E003A3F37
:00000001FF
